{
  "contractName": "SimpleStorage",
  "abi": [
    {
      "constant": true,
      "inputs": [],
      "name": "arrcount",
      "outputs": [
        {
          "internalType": "uint256",
          "name": "",
          "type": "uint256"
        }
      ],
      "payable": false,
      "stateMutability": "view",
      "type": "function"
    },
    {
      "constant": true,
      "inputs": [
        {
          "internalType": "uint256",
          "name": "",
          "type": "uint256"
        }
      ],
      "name": "ipfsinfoarr",
      "outputs": [
        {
          "internalType": "string",
          "name": "patientId",
          "type": "string"
        },
        {
          "internalType": "string",
          "name": "result",
          "type": "string"
        }
      ],
      "payable": false,
      "stateMutability": "view",
      "type": "function"
    },
    {
      "constant": false,
      "inputs": [
        {
          "internalType": "string",
          "name": "_patientId",
          "type": "string"
        },
        {
          "internalType": "string",
          "name": "_result",
          "type": "string"
        }
      ],
      "name": "set",
      "outputs": [],
      "payable": false,
      "stateMutability": "nonpayable",
      "type": "function"
    },
    {
      "constant": true,
      "inputs": [
        {
          "internalType": "uint256",
          "name": "_i",
          "type": "uint256"
        }
      ],
      "name": "get",
      "outputs": [
        {
          "components": [
            {
              "internalType": "string",
              "name": "patientId",
              "type": "string"
            },
            {
              "internalType": "string",
              "name": "result",
              "type": "string"
            }
          ],
          "internalType": "struct SimpleStorage.Ipfsinfo",
          "name": "",
          "type": "tuple"
        }
      ],
      "payable": false,
      "stateMutability": "view",
      "type": "function"
    },
    {
      "constant": true,
      "inputs": [],
      "name": "getArrSize",
      "outputs": [
        {
          "internalType": "uint256",
          "name": "",
          "type": "uint256"
        }
      ],
      "payable": false,
      "stateMutability": "view",
      "type": "function"
    }
  ],
  "bytecode": "0x608060405234801561001057600080fd5b506108c5806100206000396000f3fe608060405234801561001057600080fd5b50600436106100575760003560e01c806305b60ac31461005c5780639507d39a1461007a578063ae87f859146100aa578063bfdfb106146100c8578063e942b516146100f9575b600080fd5b610064610115565b604051610071919061076d565b60405180910390f35b610094600480360361008f9190810190610626565b61011f565b6040516100a1919061074b565b60405180910390f35b6100b2610298565b6040516100bf919061076d565b60405180910390f35b6100e260048036036100dd9190810190610626565b61029e565b6040516100f0929190610714565b60405180910390f35b610113600480360361010e91908101906105ba565b6103ff565b005b6000600154905090565b610127610492565b6000828154811061013457fe5b9060005260206000209060020201604051806040016040529081600082018054600181600116156101000203166002900480601f0160208091040260200160405190810160405280929190818152602001828054600181600116156101000203166002900480156101e65780601f106101bb576101008083540402835291602001916101e6565b820191906000526020600020905b8154815290600101906020018083116101c957829003601f168201915b50505050508152602001600182018054600181600116156101000203166002900480601f0160208091040260200160405190810160405280929190818152602001828054600181600116156101000203166002900480156102885780601f1061025d57610100808354040283529160200191610288565b820191906000526020600020905b81548152906001019060200180831161026b57829003601f168201915b5050505050815250509050919050565b60015481565b600081815481106102ab57fe5b9060005260206000209060020201600091509050806000018054600181600116156101000203166002900480601f0160208091040260200160405190810160405280929190818152602001828054600181600116156101000203166002900480156103575780601f1061032c57610100808354040283529160200191610357565b820191906000526020600020905b81548152906001019060200180831161033a57829003601f168201915b505050505090806001018054600181600116156101000203166002900480601f0160208091040260200160405190810160405280929190818152602001828054600181600116156101000203166002900480156103f55780601f106103ca576101008083540402835291602001916103f5565b820191906000526020600020905b8154815290600101906020018083116103d857829003601f168201915b5050505050905082565b600060405180604001604052808481526020018381525090806001815401808255809150509060018203906000526020600020906002020160009091929091909150600082015181600001908051906020019061045d9291906104ac565b50602082015181600101908051906020019061047a9291906104ac565b50505050600180600082825401925050819055505050565b604051806040016040528060608152602001606081525090565b828054600181600116156101000203166002900490600052602060002090601f016020900481019282601f106104ed57805160ff191683800117855561051b565b8280016001018555821561051b579182015b8281111561051a5782518255916020019190600101906104ff565b5b509050610528919061052c565b5090565b61054e91905b8082111561054a576000816000905550600101610532565b5090565b90565b600082601f83011261056257600080fd5b8135610575610570826107b5565b610788565b9150808252602083016020830185838301111561059157600080fd5b61059c838284610818565b50505092915050565b6000813590506105b48161086b565b92915050565b600080604083850312156105cd57600080fd5b600083013567ffffffffffffffff8111156105e757600080fd5b6105f385828601610551565b925050602083013567ffffffffffffffff81111561061057600080fd5b61061c85828601610551565b9150509250929050565b60006020828403121561063857600080fd5b6000610646848285016105a5565b91505092915050565b600061065a826107e1565b61066481856107ec565b9350610674818560208601610827565b61067d8161085a565b840191505092915050565b6000610693826107e1565b61069d81856107fd565b93506106ad818560208601610827565b6106b68161085a565b840191505092915050565b600060408301600083015184820360008601526106de828261064f565b915050602083015184820360208601526106f8828261064f565b9150508091505092915050565b61070e8161080e565b82525050565b6000604082019050818103600083015261072e8185610688565b905081810360208301526107428184610688565b90509392505050565b6000602082019050818103600083015261076581846106c1565b905092915050565b60006020820190506107826000830184610705565b92915050565b6000604051905081810181811067ffffffffffffffff821117156107ab57600080fd5b8060405250919050565b600067ffffffffffffffff8211156107cc57600080fd5b601f19601f8301169050602081019050919050565b600081519050919050565b600082825260208201905092915050565b600082825260208201905092915050565b6000819050919050565b82818337600083830152505050565b60005b8381101561084557808201518184015260208101905061082a565b83811115610854576000848401525b50505050565b6000601f19601f8301169050919050565b6108748161080e565b811461087f57600080fd5b5056fea365627a7a72315820e6ddbf93aba142192ad1cdda716f8db3fed58eac5943bb3bcae43dcc77ff1b5f6c6578706572696d656e74616cf564736f6c63430005100040",
  "source": "// SPDX-License-Identifier: MIT\npragma solidity >=0.4.22 <0.9.0;\npragma experimental ABIEncoderV2;\n\ncontract SimpleStorage {\n  \n  struct Ipfsinfo {\n        string patientId;\n        string result;\n  }\n\n  Ipfsinfo[] public ipfsinfoarr;\n  uint256 public arrcount;\n\n  function set(string memory _patientId, string memory _result) public {\n    ipfsinfoarr.push(Ipfsinfo(_patientId, _result));\n    arrcount += 1;\n  }\n\n  function get(uint _i) public view returns (Ipfsinfo memory) {\n    return ipfsinfoarr[_i];\n  }\n\n  function getArrSize() public view returns (uint256) {\n    return arrcount;\n  }\n}\n",
  "sourcePath": "D:\\edu\\8thSemProject\\contracts\\SimpleStorage.sol",
  "compiler": {
    "name": "solc",
    "version": "0.5.16+commit.9c3226ce.Emscripten.clang"
  },
  "schemaVersion": "3.4.3",
  "updatedAt": "2022-04-23T02:37:42.793Z",
  "networkType": "ethereum",
  "devdoc": {
    "methods": {}
  },
  "userdoc": {
    "methods": {}
  }
}