{
  "contractName": "SimpleStorage",
  "abi": [
    {
      "constant": true,
      "inputs": [],
      "name": "arrcount",
      "outputs": [
        {
          "internalType": "uint256",
          "name": "",
          "type": "uint256"
        }
      ],
      "payable": false,
      "stateMutability": "view",
      "type": "function"
    },
    {
      "constant": true,
      "inputs": [
        {
          "internalType": "uint256",
          "name": "",
          "type": "uint256"
        }
      ],
      "name": "ipfsinfoarr",
      "outputs": [
        {
          "internalType": "uint256",
          "name": "patientId",
          "type": "uint256"
        },
        {
          "internalType": "string",
          "name": "pname",
          "type": "string"
        },
        {
          "internalType": "string",
          "name": "result",
          "type": "string"
        }
      ],
      "payable": false,
      "stateMutability": "view",
      "type": "function"
    },
    {
      "constant": false,
      "inputs": [
        {
          "internalType": "string",
          "name": "_pname",
          "type": "string"
        },
        {
          "internalType": "string",
          "name": "_result",
          "type": "string"
        }
      ],
      "name": "set",
      "outputs": [],
      "payable": false,
      "stateMutability": "nonpayable",
      "type": "function"
    },
    {
      "constant": true,
      "inputs": [],
      "name": "get",
      "outputs": [
        {
          "components": [
            {
              "internalType": "uint256",
              "name": "patientId",
              "type": "uint256"
            },
            {
              "internalType": "string",
              "name": "pname",
              "type": "string"
            },
            {
              "internalType": "string",
              "name": "result",
              "type": "string"
            }
          ],
          "internalType": "struct SimpleStorage.Ipfsinfo[]",
          "name": "",
          "type": "tuple[]"
        }
      ],
      "payable": false,
      "stateMutability": "view",
      "type": "function"
    },
    {
      "constant": true,
      "inputs": [],
      "name": "getArrSize",
      "outputs": [
        {
          "internalType": "uint256",
          "name": "",
          "type": "uint256"
        }
      ],
      "payable": false,
      "stateMutability": "view",
      "type": "function"
    }
  ],
  "bytecode": "0x608060405234801561001057600080fd5b506109d8806100206000396000f3fe608060405234801561001057600080fd5b50600436106100575760003560e01c806305b60ac31461005c5780636d4ce63c1461007a578063ae87f85914610098578063bfdfb106146100b6578063e942b516146100e8575b600080fd5b610064610104565b6040516100719190610802565b60405180910390f35b61008261010e565b60405161008f91906107e0565b60405180910390f35b6100a06102bb565b6040516100ad9190610802565b60405180910390f35b6100d060048036036100cb9190810190610647565b6102c1565b6040516100df9392919061081d565b60405180910390f35b61010260048036036100fd91908101906105db565b610428565b005b6000600154905090565b60606000805480602002602001604051908101604052809291908181526020016000905b828210156102b2578382906000526020600020906003020160405180606001604052908160008201548152602001600182018054600181600116156101000203166002900480601f0160208091040260200160405190810160405280929190818152602001828054600181600116156101000203166002900480156101f85780601f106101cd576101008083540402835291602001916101f8565b820191906000526020600020905b8154815290600101906020018083116101db57829003601f168201915b50505050508152602001600282018054600181600116156101000203166002900480601f01602080910402602001604051908101604052809291908181526020018280546001816001161561010002031660029004801561029a5780601f1061026f5761010080835404028352916020019161029a565b820191906000526020600020905b81548152906001019060200180831161027d57829003601f168201915b50505050508152505081526020019060010190610132565b50505050905090565b60015481565b600081815481106102ce57fe5b9060005260206000209060030201600091509050806000015490806001018054600181600116156101000203166002900480601f0160208091040260200160405190810160405280929190818152602001828054600181600116156101000203166002900480156103805780601f1061035557610100808354040283529160200191610380565b820191906000526020600020905b81548152906001019060200180831161036357829003601f168201915b505050505090806002018054600181600116156101000203166002900480601f01602080910402602001604051908101604052809291908181526020018280546001816001161561010002031660029004801561041e5780601f106103f35761010080835404028352916020019161041e565b820191906000526020600020905b81548152906001019060200180831161040157829003601f168201915b5050505050905083565b6001806000828254019250508190555060006040518060600160405280600154815260200184815260200183815250908060018154018082558091505090600182039060005260206000209060030201600090919290919091506000820151816000015560208201518160010190805190602001906104a89291906104cd565b5060408201518160020190805190602001906104c59291906104cd565b505050505050565b828054600181600116156101000203166002900490600052602060002090601f016020900481019282601f1061050e57805160ff191683800117855561053c565b8280016001018555821561053c579182015b8281111561053b578251825591602001919060010190610520565b5b509050610549919061054d565b5090565b61056f91905b8082111561056b576000816000905550600101610553565b5090565b90565b600082601f83011261058357600080fd5b81356105966105918261088f565b610862565b915080825260208301602083018583830111156105b257600080fd5b6105bd83828461092b565b50505092915050565b6000813590506105d58161097e565b92915050565b600080604083850312156105ee57600080fd5b600083013567ffffffffffffffff81111561060857600080fd5b61061485828601610572565b925050602083013567ffffffffffffffff81111561063157600080fd5b61063d85828601610572565b9150509250929050565b60006020828403121561065957600080fd5b6000610667848285016105c6565b91505092915050565b600061067c838361076b565b905092915050565b600061068f826108cb565b61069981856108ee565b9350836020820285016106ab856108bb565b8060005b858110156106e757848403895281516106c88582610670565b94506106d3836108e1565b925060208a019950506001810190506106af565b50829750879550505050505092915050565b6000610704826108d6565b61070e81856108ff565b935061071e81856020860161093a565b6107278161096d565b840191505092915050565b600061073d826108d6565b6107478185610910565b935061075781856020860161093a565b6107608161096d565b840191505092915050565b600060608301600083015161078360008601826107c2565b506020830151848203602086015261079b82826106f9565b915050604083015184820360408601526107b582826106f9565b9150508091505092915050565b6107cb81610921565b82525050565b6107da81610921565b82525050565b600060208201905081810360008301526107fa8184610684565b905092915050565b600060208201905061081760008301846107d1565b92915050565b600060608201905061083260008301866107d1565b81810360208301526108448185610732565b905081810360408301526108588184610732565b9050949350505050565b6000604051905081810181811067ffffffffffffffff8211171561088557600080fd5b8060405250919050565b600067ffffffffffffffff8211156108a657600080fd5b601f19601f8301169050602081019050919050565b6000819050602082019050919050565b600081519050919050565b600081519050919050565b6000602082019050919050565b600082825260208201905092915050565b600082825260208201905092915050565b600082825260208201905092915050565b6000819050919050565b82818337600083830152505050565b60005b8381101561095857808201518184015260208101905061093d565b83811115610967576000848401525b50505050565b6000601f19601f8301169050919050565b61098781610921565b811461099257600080fd5b5056fea365627a7a723158206994e5cfe6894638a9e7a5b235c240e2ecacd3ecc0949e410acb5b6f9ccf11e36c6578706572696d656e74616cf564736f6c63430005100040",
  "source": "// SPDX-License-Identifier: MIT\npragma solidity >=0.4.22 <0.9.0;\npragma experimental ABIEncoderV2;\n\ncontract SimpleStorage {\n  \n  struct Ipfsinfo {\n        uint256 patientId;\n        string pname;\n        string result;\n  }\n\n  Ipfsinfo[] public ipfsinfoarr;\n  uint256 public arrcount;\n\n  function set(string memory _pname, string memory _result) public {\n    arrcount += 1;\n    ipfsinfoarr.push(Ipfsinfo(arrcount, _pname, _result));\n  }\n\n  function get() public view returns (Ipfsinfo[] memory) {\n    return ipfsinfoarr;\n  }\n\n  function getArrSize() public view returns (uint256) {\n    return arrcount;\n  }\n}\n",
  "sourcePath": "D:\\edu\\8thSemProject\\contracts\\SimpleStorage.sol",
  "compiler": {
    "name": "solc",
    "version": "0.5.16+commit.9c3226ce.Emscripten.clang"
  },
  "schemaVersion": "3.4.3",
  "updatedAt": "2022-05-29T03:11:09.434Z",
  "networkType": "ethereum",
  "devdoc": {
    "methods": {}
  },
  "userdoc": {
    "methods": {}
  }
}